{
  "_format": "hh-sol-artifact-1",
  "contractName": "TaskManager",
  "sourceName": "contracts/TaskManager.sol",
  "abi": [
    {
      "inputs": [
        {
          "internalType": "address",
          "name": "_usdcToken",
          "type": "address"
        },
        {
          "internalType": "address",
          "name": "_orchestrator",
          "type": "address"
        }
      ],
      "stateMutability": "nonpayable",
      "type": "constructor"
    },
    {
      "inputs": [
        {
          "internalType": "address",
          "name": "owner",
          "type": "address"
        }
      ],
      "name": "OwnableInvalidOwner",
      "type": "error"
    },
    {
      "inputs": [
        {
          "internalType": "address",
          "name": "account",
          "type": "address"
        }
      ],
      "name": "OwnableUnauthorizedAccount",
      "type": "error"
    },
    {
      "inputs": [],
      "name": "ReentrancyGuardReentrantCall",
      "type": "error"
    },
    {
      "anonymous": false,
      "inputs": [
        {
          "indexed": true,
          "internalType": "address",
          "name": "agent",
          "type": "address"
        },
        {
          "indexed": false,
          "internalType": "uint256",
          "name": "amount",
          "type": "uint256"
        }
      ],
      "name": "EarningsWithdrawn",
      "type": "event"
    },
    {
      "anonymous": false,
      "inputs": [
        {
          "indexed": true,
          "internalType": "address",
          "name": "previousOwner",
          "type": "address"
        },
        {
          "indexed": true,
          "internalType": "address",
          "name": "newOwner",
          "type": "address"
        }
      ],
      "name": "OwnershipTransferred",
      "type": "event"
    },
    {
      "anonymous": false,
      "inputs": [
        {
          "indexed": true,
          "internalType": "bytes32",
          "name": "taskId",
          "type": "bytes32"
        },
        {
          "indexed": true,
          "internalType": "address",
          "name": "creator",
          "type": "address"
        },
        {
          "indexed": false,
          "internalType": "uint256",
          "name": "budget",
          "type": "uint256"
        },
        {
          "indexed": false,
          "internalType": "string",
          "name": "taskType",
          "type": "string"
        }
      ],
      "name": "TaskCreated",
      "type": "event"
    },
    {
      "anonymous": false,
      "inputs": [
        {
          "indexed": true,
          "internalType": "bytes32",
          "name": "taskId",
          "type": "bytes32"
        },
        {
          "indexed": false,
          "internalType": "uint256",
          "name": "orchestratorEarning",
          "type": "uint256"
        },
        {
          "indexed": false,
          "internalType": "uint256",
          "name": "refundedToCreator",
          "type": "uint256"
        }
      ],
      "name": "TaskSettled",
      "type": "event"
    },
    {
      "anonymous": false,
      "inputs": [
        {
          "indexed": true,
          "internalType": "bytes32",
          "name": "taskId",
          "type": "bytes32"
        },
        {
          "indexed": true,
          "internalType": "address",
          "name": "validator",
          "type": "address"
        },
        {
          "indexed": false,
          "internalType": "uint8",
          "name": "score",
          "type": "uint8"
        },
        {
          "indexed": false,
          "internalType": "uint256",
          "name": "validatorPayment",
          "type": "uint256"
        }
      ],
      "name": "ValidationSubmitted",
      "type": "event"
    },
    {
      "anonymous": false,
      "inputs": [
        {
          "indexed": true,
          "internalType": "bytes32",
          "name": "taskId",
          "type": "bytes32"
        },
        {
          "indexed": true,
          "internalType": "address",
          "name": "worker",
          "type": "address"
        },
        {
          "indexed": false,
          "internalType": "uint256",
          "name": "workerPayment",
          "type": "uint256"
        }
      ],
      "name": "WorkerResultSubmitted",
      "type": "event"
    },
    {
      "inputs": [
        {
          "internalType": "string",
          "name": "_input",
          "type": "string"
        },
        {
          "internalType": "uint256",
          "name": "_budget",
          "type": "uint256"
        },
        {
          "internalType": "string",
          "name": "_taskType",
          "type": "string"
        },
        {
          "internalType": "string",
          "name": "_metadata",
          "type": "string"
        }
      ],
      "name": "createTask",
      "outputs": [
        {
          "internalType": "bytes32",
          "name": "",
          "type": "bytes32"
        }
      ],
      "stateMutability": "nonpayable",
      "type": "function"
    },
    {
      "inputs": [
        {
          "internalType": "uint256",
          "name": "_amount",
          "type": "uint256"
        }
      ],
      "name": "emergencyWithdraw",
      "outputs": [],
      "stateMutability": "nonpayable",
      "type": "function"
    },
    {
      "inputs": [
        {
          "internalType": "address",
          "name": "_agent",
          "type": "address"
        }
      ],
      "name": "getAgentEarnings",
      "outputs": [
        {
          "internalType": "uint256",
          "name": "worker",
          "type": "uint256"
        },
        {
          "internalType": "uint256",
          "name": "validator",
          "type": "uint256"
        },
        {
          "internalType": "uint256",
          "name": "orchestratorAmount",
          "type": "uint256"
        }
      ],
      "stateMutability": "view",
      "type": "function"
    },
    {
      "inputs": [],
      "name": "getContractBalance",
      "outputs": [
        {
          "internalType": "uint256",
          "name": "",
          "type": "uint256"
        }
      ],
      "stateMutability": "view",
      "type": "function"
    },
    {
      "inputs": [
        {
          "internalType": "bytes32",
          "name": "_taskId",
          "type": "bytes32"
        }
      ],
      "name": "getTask",
      "outputs": [
        {
          "components": [
            {
              "internalType": "bytes32",
              "name": "id",
              "type": "bytes32"
            },
            {
              "internalType": "address",
              "name": "creator",
              "type": "address"
            },
            {
              "internalType": "string",
              "name": "input",
              "type": "string"
            },
            {
              "internalType": "uint256",
              "name": "budget",
              "type": "uint256"
            },
            {
              "internalType": "uint256",
              "name": "totalSpent",
              "type": "uint256"
            },
            {
              "internalType": "string",
              "name": "result",
              "type": "string"
            },
            {
              "internalType": "uint8",
              "name": "validationScore",
              "type": "uint8"
            },
            {
              "internalType": "enum TaskManager.TaskStatus",
              "name": "status",
              "type": "uint8"
            },
            {
              "internalType": "uint256",
              "name": "createdAt",
              "type": "uint256"
            },
            {
              "internalType": "uint256",
              "name": "completedAt",
              "type": "uint256"
            },
            {
              "internalType": "string",
              "name": "taskType",
              "type": "string"
            },
            {
              "internalType": "string",
              "name": "metadata",
              "type": "string"
            }
          ],
          "internalType": "struct TaskManager.Task",
          "name": "",
          "type": "tuple"
        }
      ],
      "stateMutability": "view",
      "type": "function"
    },
    {
      "inputs": [],
      "name": "getTaskCount",
      "outputs": [
        {
          "internalType": "uint256",
          "name": "",
          "type": "uint256"
        }
      ],
      "stateMutability": "view",
      "type": "function"
    },
    {
      "inputs": [
        {
          "internalType": "bytes32",
          "name": "_taskId",
          "type": "bytes32"
        }
      ],
      "name": "getTaskValidator",
      "outputs": [
        {
          "internalType": "address",
          "name": "",
          "type": "address"
        }
      ],
      "stateMutability": "view",
      "type": "function"
    },
    {
      "inputs": [
        {
          "internalType": "bytes32",
          "name": "_taskId",
          "type": "bytes32"
        }
      ],
      "name": "getTaskWorker",
      "outputs": [
        {
          "internalType": "address",
          "name": "",
          "type": "address"
        }
      ],
      "stateMutability": "view",
      "type": "function"
    },
    {
      "inputs": [
        {
          "internalType": "address",
          "name": "_user",
          "type": "address"
        }
      ],
      "name": "getUserTasks",
      "outputs": [
        {
          "internalType": "bytes32[]",
          "name": "",
          "type": "bytes32[]"
        }
      ],
      "stateMutability": "view",
      "type": "function"
    },
    {
      "inputs": [],
      "name": "orchestrator",
      "outputs": [
        {
          "internalType": "address",
          "name": "",
          "type": "address"
        }
      ],
      "stateMutability": "view",
      "type": "function"
    },
    {
      "inputs": [
        {
          "internalType": "address",
          "name": "",
          "type": "address"
        }
      ],
      "name": "orchestratorEarnings",
      "outputs": [
        {
          "internalType": "uint256",
          "name": "",
          "type": "uint256"
        }
      ],
      "stateMutability": "view",
      "type": "function"
    },
    {
      "inputs": [],
      "name": "orchestratorMargin",
      "outputs": [
        {
          "internalType": "uint256",
          "name": "",
          "type": "uint256"
        }
      ],
      "stateMutability": "view",
      "type": "function"
    },
    {
      "inputs": [],
      "name": "owner",
      "outputs": [
        {
          "internalType": "address",
          "name": "",
          "type": "address"
        }
      ],
      "stateMutability": "view",
      "type": "function"
    },
    {
      "inputs": [],
      "name": "renounceOwnership",
      "outputs": [],
      "stateMutability": "nonpayable",
      "type": "function"
    },
    {
      "inputs": [
        {
          "internalType": "address",
          "name": "_newOrchestrator",
          "type": "address"
        }
      ],
      "name": "setOrchestrator",
      "outputs": [],
      "stateMutability": "nonpayable",
      "type": "function"
    },
    {
      "inputs": [
        {
          "internalType": "uint256",
          "name": "_newMargin",
          "type": "uint256"
        }
      ],
      "name": "setOrchestratorMargin",
      "outputs": [],
      "stateMutability": "nonpayable",
      "type": "function"
    },
    {
      "inputs": [
        {
          "internalType": "bytes32",
          "name": "_taskId",
          "type": "bytes32"
        }
      ],
      "name": "settleTask",
      "outputs": [],
      "stateMutability": "nonpayable",
      "type": "function"
    },
    {
      "inputs": [
        {
          "internalType": "bytes32",
          "name": "_taskId",
          "type": "bytes32"
        },
        {
          "internalType": "uint8",
          "name": "_score",
          "type": "uint8"
        },
        {
          "internalType": "uint256",
          "name": "_validatorPayment",
          "type": "uint256"
        }
      ],
      "name": "submitValidation",
      "outputs": [],
      "stateMutability": "nonpayable",
      "type": "function"
    },
    {
      "inputs": [
        {
          "internalType": "bytes32",
          "name": "_taskId",
          "type": "bytes32"
        },
        {
          "internalType": "string",
          "name": "_result",
          "type": "string"
        },
        {
          "internalType": "uint256",
          "name": "_workerPayment",
          "type": "uint256"
        }
      ],
      "name": "submitWorkerResult",
      "outputs": [],
      "stateMutability": "nonpayable",
      "type": "function"
    },
    {
      "inputs": [
        {
          "internalType": "bytes32",
          "name": "",
          "type": "bytes32"
        }
      ],
      "name": "taskValidators",
      "outputs": [
        {
          "internalType": "address",
          "name": "",
          "type": "address"
        }
      ],
      "stateMutability": "view",
      "type": "function"
    },
    {
      "inputs": [
        {
          "internalType": "bytes32",
          "name": "",
          "type": "bytes32"
        }
      ],
      "name": "taskWorkers",
      "outputs": [
        {
          "internalType": "address",
          "name": "",
          "type": "address"
        }
      ],
      "stateMutability": "view",
      "type": "function"
    },
    {
      "inputs": [
        {
          "internalType": "bytes32",
          "name": "",
          "type": "bytes32"
        }
      ],
      "name": "tasks",
      "outputs": [
        {
          "internalType": "bytes32",
          "name": "id",
          "type": "bytes32"
        },
        {
          "internalType": "address",
          "name": "creator",
          "type": "address"
        },
        {
          "internalType": "string",
          "name": "input",
          "type": "string"
        },
        {
          "internalType": "uint256",
          "name": "budget",
          "type": "uint256"
        },
        {
          "internalType": "uint256",
          "name": "totalSpent",
          "type": "uint256"
        },
        {
          "internalType": "string",
          "name": "result",
          "type": "string"
        },
        {
          "internalType": "uint8",
          "name": "validationScore",
          "type": "uint8"
        },
        {
          "internalType": "enum TaskManager.TaskStatus",
          "name": "status",
          "type": "uint8"
        },
        {
          "internalType": "uint256",
          "name": "createdAt",
          "type": "uint256"
        },
        {
          "internalType": "uint256",
          "name": "completedAt",
          "type": "uint256"
        },
        {
          "internalType": "string",
          "name": "taskType",
          "type": "string"
        },
        {
          "internalType": "string",
          "name": "metadata",
          "type": "string"
        }
      ],
      "stateMutability": "view",
      "type": "function"
    },
    {
      "inputs": [
        {
          "internalType": "address",
          "name": "newOwner",
          "type": "address"
        }
      ],
      "name": "transferOwnership",
      "outputs": [],
      "stateMutability": "nonpayable",
      "type": "function"
    },
    {
      "inputs": [],
      "name": "usdcToken",
      "outputs": [
        {
          "internalType": "contract IERC20",
          "name": "",
          "type": "address"
        }
      ],
      "stateMutability": "view",
      "type": "function"
    },
    {
      "inputs": [
        {
          "internalType": "address",
          "name": "",
          "type": "address"
        },
        {
          "internalType": "uint256",
          "name": "",
          "type": "uint256"
        }
      ],
      "name": "userTasks",
      "outputs": [
        {
          "internalType": "bytes32",
          "name": "",
          "type": "bytes32"
        }
      ],
      "stateMutability": "view",
      "type": "function"
    },
    {
      "inputs": [
        {
          "internalType": "address",
          "name": "",
          "type": "address"
        }
      ],
      "name": "validatorEarnings",
      "outputs": [
        {
          "internalType": "uint256",
          "name": "",
          "type": "uint256"
        }
      ],
      "stateMutability": "view",
      "type": "function"
    },
    {
      "inputs": [],
      "name": "withdrawEarnings",
      "outputs": [],
      "stateMutability": "nonpayable",
      "type": "function"
    },
    {
      "inputs": [
        {
          "internalType": "address",
          "name": "",
          "type": "address"
        }
      ],
      "name": "workerEarnings",
      "outputs": [
        {
          "internalType": "uint256",
          "name": "",
          "type": "uint256"
        }
      ],
      "stateMutability": "view",
      "type": "function"
    }
  ],
  "bytecode": "0x6080604052600560035560006004553480156200001b57600080fd5b506040516200250b3803806200250b8339810160408190526200003e9162000134565b60017f9b779b17422d0df92223018b32b4d1fa46e071723d6817e2486d003becc55f005533806200008957604051631e4fbdf760e01b81526000600482015260240160405180910390fd5b6200009481620000c7565b50600180546001600160a01b039384166001600160a01b031991821617909155600280549290931691161790556200016c565b600080546001600160a01b038381166001600160a01b0319831681178455604051919092169283917f8be0079c531659141344cd1fd0a4f28419497f9722a3daafe3b4186f6b6457e09190a35050565b80516001600160a01b03811681146200012f57600080fd5b919050565b600080604083850312156200014857600080fd5b620001538362000117565b9150620001636020840162000117565b90509250929050565b61238f806200017c6000396000f3fe608060405234801561001057600080fd5b50600436106101c45760003560e01c806399ce7d9c116100f9578063cd28ef0d11610097578063dc2c3ad211610071578063dc2c3ad21461040e578063e579f50014610437578063e971c4d614610462578063f2fde38b1461048b57600080fd5b8063cd28ef0d146103c8578063d6af4379146103db578063dba14fbb146103fb57600080fd5b8063b73c6ce9116100d3578063b73c6ce914610392578063b74795d91461039a578063c17a340e146103ad578063c37d4556146103b557600080fd5b806399ce7d9c146103435780639b2f7ad114610356578063aa4b55141461036957600080fd5b8063649b7f8c11610166578063715018a611610140578063715018a6146102dc5780638da5cb5b146102e457806395d57660146102f5578063964085811461031557600080fd5b8063649b7f8c146102ae57806366873a55146102c15780636f9fb98a146102d457600080fd5b806318bcbebf116101a257806318bcbebf14610247578063393880061461027057806339910555146102905780635312ea8e1461029957600080fd5b806307162a20146101c957806311eac855146101fc57806315a2903514610227575b600080fd5b6101e96101d7366004611c02565b600b6020526000908152604090205481565b6040519081526020015b60405180910390f35b60015461020f906001600160a01b031681565b6040516001600160a01b0390911681526020016101f3565b61023a610235366004611c24565b61049e565b6040516101f39190611cbb565b61020f610255366004611c24565b6008602052600090815260409020546001600160a01b031681565b6101e961027e366004611c02565b600a6020526000908152604090205481565b6101e960035481565b6102ac6102a7366004611c24565b6107d9565b005b6102ac6102bc366004611e61565b610933565b6101e96102cf366004611eb1565b610b79565b6101e9610baa565b6102ac610c1c565b6000546001600160a01b031661020f565b610308610303366004611c02565b610c30565b6040516101f39190611edb565b610328610323366004611c02565b610c9c565b604080519384526020840192909252908201526060016101f3565b6102ac610351366004611f1f565b610cfa565b6102ac610364366004611c24565b610f27565b61020f610377366004611c24565b6000908152600860205260409020546001600160a01b031690565b6102ac610f85565b60025461020f906001600160a01b031681565b6004546101e9565b6101e96103c3366004611f5d565b6111a2565b6102ac6103d6366004611c02565b6114c9565b6101e96103e9366004611c02565b60096020526000908152604090205481565b6102ac610409366004611c24565b611549565b61020f61041c366004611c24565b6007602052600090815260409020546001600160a01b031681565b61044a610445366004611c24565b6117d4565b6040516101f39c9b9a99989796959493929190611fef565b61020f610470366004611c24565b6000908152600760205260409020546001600160a01b031690565b6102ac610499366004611c02565b611a61565b6104a6611b65565b6000828152600560205260409020600101546001600160a01b03166104e65760405162461bcd60e51b81526004016104dd9061209b565b60405180910390fd5b6000828152600560209081526040918290208251610180810184528154815260018201546001600160a01b0316928101929092526002810180549293919291840191610531906120c8565b80601f016020809104026020016040519081016040528092919081815260200182805461055d906120c8565b80156105aa5780601f1061057f576101008083540402835291602001916105aa565b820191906000526020600020905b81548152906001019060200180831161058d57829003601f168201915b5050505050815260200160038201548152602001600482015481526020016005820180546105d7906120c8565b80601f0160208091040260200160405190810160405280929190818152602001828054610603906120c8565b80156106505780601f1061062557610100808354040283529160200191610650565b820191906000526020600020905b81548152906001019060200180831161063357829003601f168201915b5050509183525050600682015460ff808216602084015260409092019161010090910416600481111561068557610685611c83565b600481111561069657610696611c83565b815260200160078201548152602001600882015481526020016009820180546106be906120c8565b80601f01602080910402602001604051908101604052809291908181526020018280546106ea906120c8565b80156107375780601f1061070c57610100808354040283529160200191610737565b820191906000526020600020905b81548152906001019060200180831161071a57829003601f168201915b50505050508152602001600a82018054610750906120c8565b80601f016020809104026020016040519081016040528092919081815260200182805461077c906120c8565b80156107c95780601f1061079e576101008083540402835291602001916107c9565b820191906000526020600020905b8154815290600101906020018083116107ac57829003601f168201915b5050505050815250509050919050565b6107e1611a9c565b6107e9611ac9565b600081116108395760405162461bcd60e51b815260206004820181905260248201527f416d6f756e74206d7573742062652067726561746572207468616e207a65726f60448201526064016104dd565b6001546001600160a01b031663a9059cbb61085c6000546001600160a01b031690565b6040516001600160e01b031960e084901b1681526001600160a01b039091166004820152602481018490526044016020604051808303816000875af11580156108a9573d6000803e3d6000fd5b505050506040513d601f19601f820116820180604052508101906108cd9190612102565b6109195760405162461bcd60e51b815260206004820152601b60248201527f456d657267656e6379207769746864726177616c206661696c6564000000000060448201526064016104dd565b610930600160008051602061233a83398151915255565b50565b61093b611ac9565b600083815260056020526040902060018101546001600160a01b03166109735760405162461bcd60e51b81526004016104dd9061209b565b60006006820154610100900460ff16600481111561099357610993611c83565b146109e05760405162461bcd60e51b815260206004820152601960248201527f5461736b206e6f7420696e2070656e64696e672073746174650000000000000060448201526064016104dd565b6000835111610a2a5760405162461bcd60e51b8152602060048201526016602482015275526573756c742063616e6e6f7420626520656d70747960501b60448201526064016104dd565b60008211610a4a5760405162461bcd60e51b81526004016104dd90612124565b8060030154828260040154610a5f919061217b565b1115610aa65760405162461bcd60e51b815260206004820152601660248201527514185e5b595b9d08195e18d959591cc8189d5919d95d60521b60448201526064016104dd565b600084815260076020526040902080546001600160a01b0319163317905560058101610ad284826121e2565b5060068101805461ff001916610100179055600481018054839190600090610afb90849061217b565b90915550503360009081526009602052604081208054849290610b1f90849061217b565b9091555050604051828152339085907fde716ee5fab62eedc48e7353a83a997655c9b1a318d2dd01375863863d50ffb2906020015b60405180910390a350610b74600160008051602061233a83398151915255565b505050565b60066020528160005260406000208181548110610b9557600080fd5b90600052602060002001600091509150505481565b6001546040516370a0823160e01b81523060048201526000916001600160a01b0316906370a0823190602401602060405180830381865afa158015610bf3573d6000803e3d6000fd5b505050506040513d601f19601f82011682018060405250810190610c1791906122a2565b905090565b610c24611a9c565b610c2e6000611ae5565b565b6001600160a01b038116600090815260066020908152604091829020805483518184028101840190945280845260609392830182828015610c9057602002820191906000526020600020905b815481526020019060010190808311610c7c575b50505050509050919050565b6001600160a01b03808216600081815260096020908152604080832054600a90925282205460025491949093911614610cd6576000610cf2565b6002546001600160a01b03166000908152600b60205260409020545b929491935050565b610d02611ac9565b600083815260056020526040902060018101546001600160a01b0316610d3a5760405162461bcd60e51b81526004016104dd9061209b565b60016006820154610100900460ff166004811115610d5a57610d5a611c83565b14610da75760405162461bcd60e51b815260206004820152601c60248201527f5461736b206e6f7420696e2070726f63657373696e672073746174650000000060448201526064016104dd565b60648360ff161115610dfb5760405162461bcd60e51b815260206004820152601f60248201527f53636f7265206d757374206265206265747765656e203020616e64203130300060448201526064016104dd565b60008211610e1b5760405162461bcd60e51b81526004016104dd90612124565b8060030154828260040154610e30919061217b565b1115610e775760405162461bcd60e51b815260206004820152601660248201527514185e5b595b9d08195e18d959591cc8189d5919d95d60521b60448201526064016104dd565b600084815260086020526040812080546001600160a01b0319163317905560068201805460ff861661ffff1990911617610200179055600482018054849290610ec190849061217b565b9091555050336000908152600a602052604081208054849290610ee590849061217b565b90915550506040805160ff8516815260208101849052339186917fb78160d5dde1cae5f615a9ff1ff23e3c9ccdb2721de0505070f9bf80700a24c69101610b54565b610f2f611a9c565b600a811115610f805760405162461bcd60e51b815260206004820152601860248201527f4d617267696e2063616e6e6f742065786365656420313025000000000000000060448201526064016104dd565b600355565b610f8d611ac9565b3360009081526009602052604081205415610fbc57503360009081526009602052604081208054919055611044565b336000908152600a602052604090205415610feb5750336000908152600a602052604081208054919055611044565b6002546001600160a01b03163314801561101e57506002546001600160a01b03166000908152600b602052604090205415155b1561104457506002546001600160a01b03166000908152600b6020526040812080549190555b600081116110945760405162461bcd60e51b815260206004820152601760248201527f4e6f206561726e696e677320746f20776974686472617700000000000000000060448201526064016104dd565b60015460405163a9059cbb60e01b8152336004820152602481018390526001600160a01b039091169063a9059cbb906044016020604051808303816000875af11580156110e5573d6000803e3d6000fd5b505050506040513d601f19601f820116820180604052508101906111099190612102565b6111555760405162461bcd60e51b815260206004820152601a60248201527f5769746864726177616c207472616e73666572206661696c656400000000000060448201526064016104dd565b60405181815233907f48dc35af7b45e2a81fffad55f6e2fafacdb1d3d0d50d24ebdc16324f5ba757f19060200160405180910390a250610c2e600160008051602061233a83398151915255565b60006111ac611ac9565b600084116111fc5760405162461bcd60e51b815260206004820181905260248201527f427564676574206d7573742062652067726561746572207468616e207a65726f60448201526064016104dd565b60008551116112455760405162461bcd60e51b8152602060048201526015602482015274496e7075742063616e6e6f7420626520656d70747960581b60448201526064016104dd565b60008351116112965760405162461bcd60e51b815260206004820152601960248201527f5461736b20747970652063616e6e6f7420626520656d7074790000000000000060448201526064016104dd565b6001546040516323b872dd60e01b8152336004820152306024820152604481018690526001600160a01b03909116906323b872dd906064016020604051808303816000875af11580156112ed573d6000803e3d6000fd5b505050506040513d601f19601f820116820180604052508101906113119190612102565b6113545760405162461bcd60e51b81526020600482015260146024820152731554d110c81d1c985b9cd9995c8819985a5b195960621b60448201526064016104dd565b60048054604080513360601b6bffffffffffffffffffffffff1916602080830191909152426034830152605480830185905283518084039091018152607490920190925280519101209160006113a9836122bb565b909155505060008181526005602052604090208181556001810180546001600160a01b03191633179055600281016113e188826121e2565b50600381018690556000600482018190556040805160208101909152908152600582019061140f90826121e2565b5060068101805461ffff19169055426007820155600060088201556009810161143886826121e2565b50600a810161144785826121e2565b50336000818152600660209081526040808320805460018101825590845291909220018490555183907fc57de8da1c4a725e4e1be53a3f7a42906c97fd5b6201d5d9528b003d0f240ac09061149f908a908a906122d4565b60405180910390a35090506114c1600160008051602061233a83398151915255565b949350505050565b6114d1611a9c565b6001600160a01b0381166115275760405162461bcd60e51b815260206004820152601c60248201527f496e76616c6964206f7263686573747261746f7220616464726573730000000060448201526064016104dd565b600280546001600160a01b0319166001600160a01b0392909216919091179055565b611551611ac9565b600081815260056020526040902060018101546001600160a01b03166115895760405162461bcd60e51b81526004016104dd9061209b565b60026006820154610100900460ff1660048111156115a9576115a9611c83565b146115eb5760405162461bcd60e51b815260206004820152601260248201527115185cdac81b9bdd081d985b1a59185d195960721b60448201526064016104dd565b6008810154156116345760405162461bcd60e51b815260206004820152601460248201527315185cdac8185b1c9958591e481cd95d1d1b195960621b60448201526064016104dd565b60068101805461ff001916610300179055426008820155600354600482015460009160649161166391906122ed565b61166d9190612304565b6002546001600160a01b03166000908152600b602052604081208054929350839290919061169c90849061217b565b9091555050600482015460038301546000916116b791612326565b9050801561177f57600180549084015460405163a9059cbb60e01b81526001600160a01b0391821660048201526024810184905291169063a9059cbb906044016020604051808303816000875af1158015611716573d6000803e3d6000fd5b505050506040513d601f19601f8201168201806040525081019061173a9190612102565b61177f5760405162461bcd60e51b81526020600482015260166024820152751499599d5b99081d1c985b9cd9995c8819985a5b195960521b60448201526064016104dd565b604080518381526020810183905285917f5a5deeb0a31b893330683df8780a7cbb0040eca052381cddbe5b101bf61a9295910160405180910390a2505050610930600160008051602061233a83398151915255565b60056020526000908152604090208054600182015460028301805492936001600160a01b0390921692611806906120c8565b80601f0160208091040260200160405190810160405280929190818152602001828054611832906120c8565b801561187f5780601f106118545761010080835404028352916020019161187f565b820191906000526020600020905b81548152906001019060200180831161186257829003601f168201915b5050505050908060030154908060040154908060050180546118a0906120c8565b80601f01602080910402602001604051908101604052809291908181526020018280546118cc906120c8565b80156119195780601f106118ee57610100808354040283529160200191611919565b820191906000526020600020905b8154815290600101906020018083116118fc57829003601f168201915b505050600684015460078501546008860154600987018054969760ff808616986101009096041696509294509092611950906120c8565b80601f016020809104026020016040519081016040528092919081815260200182805461197c906120c8565b80156119c95780601f1061199e576101008083540402835291602001916119c9565b820191906000526020600020905b8154815290600101906020018083116119ac57829003601f168201915b50505050509080600a0180546119de906120c8565b80601f0160208091040260200160405190810160405280929190818152602001828054611a0a906120c8565b8015611a575780601f10611a2c57610100808354040283529160200191611a57565b820191906000526020600020905b815481529060010190602001808311611a3a57829003601f168201915b505050505090508c565b611a69611a9c565b6001600160a01b038116611a9357604051631e4fbdf760e01b8152600060048201526024016104dd565b61093081611ae5565b6000546001600160a01b03163314610c2e5760405163118cdaa760e01b81523360048201526024016104dd565b611ad1611b35565b600260008051602061233a83398151915255565b600080546001600160a01b038381166001600160a01b0319831681178455604051919092169283917f8be0079c531659141344cd1fd0a4f28419497f9722a3daafe3b4186f6b6457e09190a35050565b60008051602061233a83398151915254600203610c2e57604051633ee5aeb560e01b815260040160405180910390fd5b6040518061018001604052806000801916815260200160006001600160a01b0316815260200160608152602001600081526020016000815260200160608152602001600060ff16815260200160006004811115611bc457611bc4611c83565b8152602001600081526020016000815260200160608152602001606081525090565b80356001600160a01b0381168114611bfd57600080fd5b919050565b600060208284031215611c1457600080fd5b611c1d82611be6565b9392505050565b600060208284031215611c3657600080fd5b5035919050565b6000815180845260005b81811015611c6357602081850181015186830182015201611c47565b506000602082860101526020601f19601f83011685010191505092915050565b634e487b7160e01b600052602160045260246000fd5b60058110611cb757634e487b7160e01b600052602160045260246000fd5b9052565b602081528151602082015260006020830151611ce260408401826001600160a01b03169052565b506040830151610180806060850152611cff6101a0850183611c3d565b915060608501516080850152608085015160a085015260a0850151601f19808685030160c0870152611d318483611c3d565b935060c08701519150611d4960e087018360ff169052565b60e08701519150610100611d5f81880184611c99565b8701516101208781019190915287015161014080880191909152870151868503820161016080890191909152909250611d988584611c3d565b908801518782039092018488015293509050611db48382611c3d565b9695505050505050565b634e487b7160e01b600052604160045260246000fd5b600082601f830112611de557600080fd5b813567ffffffffffffffff80821115611e0057611e00611dbe565b604051601f8301601f19908116603f01168101908282118183101715611e2857611e28611dbe565b81604052838152866020858801011115611e4157600080fd5b836020870160208301376000602085830101528094505050505092915050565b600080600060608486031215611e7657600080fd5b83359250602084013567ffffffffffffffff811115611e9457600080fd5b611ea086828701611dd4565b925050604084013590509250925092565b60008060408385031215611ec457600080fd5b611ecd83611be6565b946020939093013593505050565b6020808252825182820181905260009190848201906040850190845b81811015611f1357835183529284019291840191600101611ef7565b50909695505050505050565b600080600060608486031215611f3457600080fd5b83359250602084013560ff81168114611f4c57600080fd5b929592945050506040919091013590565b60008060008060808587031215611f7357600080fd5b843567ffffffffffffffff80821115611f8b57600080fd5b611f9788838901611dd4565b9550602087013594506040870135915080821115611fb457600080fd5b611fc088838901611dd4565b93506060870135915080821115611fd657600080fd5b50611fe387828801611dd4565b91505092959194509250565b8c81526001600160a01b038c1660208201526101806040820181905260009061201a8382018e611c3d565b90508b60608401528a608084015282810360a084015261203a818b611c3d565b905060ff891660c084015261205260e0840189611c99565b86610100840152856101208401528281036101408401526120738186611c3d565b90508281036101608401526120888185611c3d565b9f9e505050505050505050505050505050565b60208082526013908201527215185cdac8191bd95cc81b9bdd08195e1a5cdd606a1b604082015260600190565b600181811c908216806120dc57607f821691505b6020821081036120fc57634e487b7160e01b600052602260045260246000fd5b50919050565b60006020828403121561211457600080fd5b81518015158114611c1d57600080fd5b60208082526021908201527f5061796d656e74206d7573742062652067726561746572207468616e207a65726040820152606f60f81b606082015260800190565b634e487b7160e01b600052601160045260246000fd5b8082018082111561218e5761218e612165565b92915050565b601f821115610b7457600081815260208120601f850160051c810160208610156121bb5750805b601f850160051c820191505b818110156121da578281556001016121c7565b505050505050565b815167ffffffffffffffff8111156121fc576121fc611dbe565b6122108161220a84546120c8565b84612194565b602080601f831160018114612245576000841561222d5750858301515b600019600386901b1c1916600185901b1785556121da565b600085815260208120601f198616915b8281101561227457888601518255948401946001909101908401612255565b50858210156122925787850151600019600388901b60f8161c191681555b5050505050600190811b01905550565b6000602082840312156122b457600080fd5b5051919050565b6000600182016122cd576122cd612165565b5060010190565b8281526040602082015260006114c16040830184611c3d565b808202811582820484141761218e5761218e612165565b60008261232157634e487b7160e01b600052601260045260246000fd5b500490565b8181038181111561218e5761218e61216556fe9b779b17422d0df92223018b32b4d1fa46e071723d6817e2486d003becc55f00a26469706673582212203ce8757b288dbbc2346cc43211e5404a40f1343c20472b9d11aa6a56ae1e7a7264736f6c63430008140033",
  "linkReferences": {},
  "deployedLinkReferences": {}
}